{
  "contractName": "Tickets",
  "abi": [
    {
      "constant": true,
      "inputs": [
        {
          "name": "",
          "type": "uint256"
        }
      ],
      "name": "tickets",
      "outputs": [
        {
          "name": "id",
          "type": "uint256"
        },
        {
          "name": "owner",
          "type": "address"
        },
        {
          "name": "price",
          "type": "uint256"
        }
      ],
      "payable": false,
      "stateMutability": "view",
      "type": "function",
      "signature": "0x50b44712"
    },
    {
      "inputs": [
        {
          "name": "_ticketCount",
          "type": "uint256"
        }
      ],
      "payable": false,
      "stateMutability": "nonpayable",
      "type": "constructor",
      "signature": "constructor"
    },
    {
      "constant": true,
      "inputs": [],
      "name": "getTicketCount",
      "outputs": [
        {
          "name": "",
          "type": "uint256"
        }
      ],
      "payable": false,
      "stateMutability": "view",
      "type": "function",
      "signature": "0x21c63a47"
    },
    {
      "constant": false,
      "inputs": [
        {
          "name": "_ticketId",
          "type": "uint256"
        }
      ],
      "name": "buyTicket",
      "outputs": [],
      "payable": true,
      "stateMutability": "payable",
      "type": "function",
      "signature": "0x67dd74ca"
    }
  ],
  "bytecode": "0x608060405234801561001057600080fd5b506040516020806104148339810180604052602081101561003057600080fd5b81019080805190602001909291905050508060008190555060008090505b60005481101561012b576001606060405190810160405280838152602001600073ffffffffffffffffffffffffffffffffffffffff168152602001670de0b6b3a7640000815250908060018154018082558091505090600182039060005260206000209060030201600090919290919091506000820151816000015560208201518160010160006101000a81548173ffffffffffffffffffffffffffffffffffffffff021916908373ffffffffffffffffffffffffffffffffffffffff16021790555060408201518160020155505050808060010191505061004e565b50506102d88061013c6000396000f3fe608060405260043610610057576000357c0100000000000000000000000000000000000000000000000000000000900463ffffffff16806321c63a471461005c57806350b447121461008757806367dd74ca14610110575b600080fd5b34801561006857600080fd5b5061007161013e565b6040518082815260200191505060405180910390f35b34801561009357600080fd5b506100c0600480360360208110156100aa57600080fd5b8101908080359060200190929190505050610147565b604051808481526020018373ffffffffffffffffffffffffffffffffffffffff1673ffffffffffffffffffffffffffffffffffffffff168152602001828152602001935050505060405180910390f35b61013c6004803603602081101561012657600080fd5b81019080803590602001909291905050506101a0565b005b60008054905090565b60018181548110151561015657fe5b90600052602060002090600302016000915090508060000154908060010160009054906101000a900473ffffffffffffffffffffffffffffffffffffffff16908060020154905083565b600073ffffffffffffffffffffffffffffffffffffffff166001828154811015156101c757fe5b906000526020600020906003020160010160009054906101000a900473ffffffffffffffffffffffffffffffffffffffff1673ffffffffffffffffffffffffffffffffffffffff1614151561021b57600080fd5b60018181548110151561022a57fe5b906000526020600020906003020160020154341015151561024a57600080fd5b3360018281548110151561025a57fe5b906000526020600020906003020160010160006101000a81548173ffffffffffffffffffffffffffffffffffffffff021916908373ffffffffffffffffffffffffffffffffffffffff1602179055505056fea165627a7a7230582008fcb82d1e9cbed4d496bdb8c37ec2ee7a6ffc473ac2c3232a947062cea0a4b10029",
  "source": "// SPDX License Identifier: MIT\npragma solidity >=0.4.21 <0.7.0;\n\ncontract Tickets {\n    uint ticketCount;\n\n    struct Ticket {\n        uint id;\n        address owner;\n        uint price;\n    }\n\n    Ticket[] public tickets;\n\n    constructor(uint _ticketCount) public {\n        ticketCount = _ticketCount;\n        for (uint i = 0; i < ticketCount; i++) {\n            tickets.push(Ticket({\n                id: i,\n                owner: address(0x00),\n                price: 1 ether\n            }));\n        }\n    }\n\n    function getTicketCount() public view returns (uint) {\n        return ticketCount;\n    }\n\n    function buyTicket(uint _ticketId) public payable {\n        // Make sure the ticket is not already sold\n        require(tickets[_ticketId].owner == address(0x00));\n        // Make sure buyer sends enought payment\n        require(msg.value >= tickets[_ticketId].price);\n        tickets[_ticketId].owner = msg.sender;\n    }\n}",
  "sourcePath": "/Users/vaheabelyan/Desktop/dapp-tickets/contracts/Tickets.sol",
  "compiler": {
    "name": "solc",
    "version": "0.5.0+commit.1d4f565a.Emscripten.clang"
  },
  "schemaVersion": "3.0.1",
  "updatedAt": "2022-04-06T16:19:01.943Z",
  "devdoc": {
    "methods": {}
  },
  "userdoc": {
    "methods": {}
  }
}