{
  "contractName": "Tickets",
  "abi": [
    {
      "constant": true,
      "inputs": [
        {
          "name": "",
          "type": "uint256"
        }
      ],
      "name": "tickets",
      "outputs": [
        {
          "name": "id",
          "type": "uint256"
        },
        {
          "name": "owner",
          "type": "address"
        }
      ],
      "payable": false,
      "stateMutability": "view",
      "type": "function",
      "signature": "0x50b44712"
    },
    {
      "inputs": [
        {
          "name": "_ticketCount",
          "type": "uint256"
        }
      ],
      "payable": false,
      "stateMutability": "nonpayable",
      "type": "constructor",
      "signature": "constructor"
    },
    {
      "constant": true,
      "inputs": [],
      "name": "getTicketCount",
      "outputs": [
        {
          "name": "",
          "type": "uint256"
        }
      ],
      "payable": false,
      "stateMutability": "view",
      "type": "function",
      "signature": "0x21c63a47"
    }
  ],
  "bytecode": "0x608060405234801561001057600080fd5b506040516020806102a98339810180604052602081101561003057600080fd5b81019080805190602001909291905050508060008190555060008090505b6000548110156101125760016040805190810160405280838152602001600073ffffffffffffffffffffffffffffffffffffffff16815250908060018154018082558091505090600182039060005260206000209060020201600090919290919091506000820151816000015560208201518160010160006101000a81548173ffffffffffffffffffffffffffffffffffffffff021916908373ffffffffffffffffffffffffffffffffffffffff160217905550505050808060010191505061004e565b5050610186806101236000396000f3fe60806040526004361061004c576000357c0100000000000000000000000000000000000000000000000000000000900463ffffffff16806321c63a471461005157806350b447121461007c575b600080fd5b34801561005d57600080fd5b506100666100fe565b6040518082815260200191505060405180910390f35b34801561008857600080fd5b506100b56004803603602081101561009f57600080fd5b8101908080359060200190929190505050610107565b604051808381526020018273ffffffffffffffffffffffffffffffffffffffff1673ffffffffffffffffffffffffffffffffffffffff1681526020019250505060405180910390f35b60008054905090565b60018181548110151561011657fe5b90600052602060002090600202016000915090508060000154908060010160009054906101000a900473ffffffffffffffffffffffffffffffffffffffff1690508256fea165627a7a72305820060f08c76ce46a8a446a258d18797d698d63a433341563f7b3cf86dec0a7e95d0029",
  "source": "// SPDX License Identifier: MIT\npragma solidity >=0.4.21 <0.7.0;\n\ncontract Tickets {\n    uint ticketCount;\n\n    struct Ticket {\n        uint id;\n        address owner;\n    }\n\n    Ticket[] public tickets;\n\n    constructor(uint _ticketCount) public {\n        ticketCount = _ticketCount;\n        for (uint i = 0; i < ticketCount; i++) {\n            tickets.push(Ticket({\n                id: i,\n                owner: address(0x00)\n            }));\n        }\n    }\n\n    function getTicketCount() public view returns (uint) {\n        return ticketCount;\n    }\n}",
  "sourcePath": "/Users/vaheabelyan/Desktop/dapp-tickets/contracts/Tickets.sol",
  "compiler": {
    "name": "solc",
    "version": "0.5.0+commit.1d4f565a.Emscripten.clang"
  },
  "schemaVersion": "3.0.1",
  "updatedAt": "2022-04-06T15:41:59.214Z",
  "devdoc": {
    "methods": {}
  },
  "userdoc": {
    "methods": {}
  }
}